{
  "contractName": "Survey",
  "abi": [
    {
      "inputs": [],
      "payable": false,
      "stateMutability": "nonpayable",
      "type": "constructor",
      "signature": "constructor"
    },
    {
      "constant": false,
      "inputs": [
        {
          "name": "_optionId",
          "type": "uint256"
        },
        {
          "name": "_optionValue",
          "type": "string"
        },
        {
          "name": "_questionId",
          "type": "uint256"
        },
        {
          "name": "_surveyId",
          "type": "uint256"
        }
      ],
      "name": "createOption",
      "outputs": [],
      "payable": false,
      "stateMutability": "nonpayable",
      "type": "function",
      "signature": "0x492f70dc"
    },
    {
      "constant": false,
      "inputs": [
        {
          "name": "_surveyId",
          "type": "uint256"
        },
        {
          "name": "_questionId",
          "type": "uint256"
        },
        {
          "name": "_questionValue",
          "type": "string"
        },
        {
          "name": "_numberOfOption",
          "type": "uint256"
        }
      ],
      "name": "createQuestion",
      "outputs": [],
      "payable": false,
      "stateMutability": "nonpayable",
      "type": "function",
      "signature": "0x7ec3cd76"
    },
    {
      "constant": false,
      "inputs": [
        {
          "name": "_surveyId",
          "type": "uint256"
        },
        {
          "name": "_surveyName",
          "type": "string"
        },
        {
          "name": "_numberOfQuestion",
          "type": "uint256"
        }
      ],
      "name": "createSurvey",
      "outputs": [],
      "payable": false,
      "stateMutability": "nonpayable",
      "type": "function",
      "signature": "0xf3e1b5a4"
    },
    {
      "constant": true,
      "inputs": [
        {
          "name": "_surveyId",
          "type": "uint256"
        }
      ],
      "name": "getSurvey",
      "outputs": [
        {
          "name": "",
          "type": "string"
        },
        {
          "name": "",
          "type": "uint256"
        }
      ],
      "payable": false,
      "stateMutability": "view",
      "type": "function",
      "signature": "0x89670e15"
    },
    {
      "constant": true,
      "inputs": [
        {
          "name": "_questionId",
          "type": "uint256"
        },
        {
          "name": "_surveyId",
          "type": "uint256"
        }
      ],
      "name": "getQuestion",
      "outputs": [
        {
          "name": "",
          "type": "string"
        },
        {
          "name": "",
          "type": "uint256"
        }
      ],
      "payable": false,
      "stateMutability": "view",
      "type": "function",
      "signature": "0xbc6d8094"
    },
    {
      "constant": true,
      "inputs": [
        {
          "name": "_optionId",
          "type": "uint256"
        },
        {
          "name": "_questionId",
          "type": "uint256"
        },
        {
          "name": "_surveyId",
          "type": "uint256"
        }
      ],
      "name": "getOption",
      "outputs": [
        {
          "name": "",
          "type": "string"
        }
      ],
      "payable": false,
      "stateMutability": "view",
      "type": "function",
      "signature": "0x57c98b4e"
    },
    {
      "constant": true,
      "inputs": [],
      "name": "harshu",
      "outputs": [
        {
          "name": "",
          "type": "string"
        }
      ],
      "payable": false,
      "stateMutability": "pure",
      "type": "function",
      "signature": "0x23d26ce4"
    },
    {
      "constant": true,
      "inputs": [
        {
          "name": "id",
          "type": "uint256"
        }
      ],
      "name": "good",
      "outputs": [
        {
          "name": "",
          "type": "uint256"
        }
      ],
      "payable": false,
      "stateMutability": "pure",
      "type": "function",
      "signature": "0x899a4aef"
    }
  ],
  "bytecode": "0x608060405234801561001057600080fd5b50610bed806100206000396000f3fe60806040526004361061008e576000357c0100000000000000000000000000000000000000000000000000000000900463ffffffff16806323d26ce414610093578063492f70dc1461012357806357c98b4e146102095780637ec3cd76146102d157806389670e15146103b7578063899a4aef14610472578063bc6d8094146104c1578063f3e1b5a414610586575b600080fd5b34801561009f57600080fd5b506100a8610662565b6040518080602001828103825283818151815260200191508051906020019080838360005b838110156100e85780820151818401526020810190506100cd565b50505050905090810190601f1680156101155780820380516001836020036101000a031916815260200191505b509250505060405180910390f35b34801561012f57600080fd5b506102076004803603608081101561014657600080fd5b81019080803590602001909291908035906020019064010000000081111561016d57600080fd5b82018360208201111561017f57600080fd5b803590602001918460018302840111640100000000831117156101a157600080fd5b91908080601f016020809104026020016040519081016040528093929190818152602001838380828437600081840152601f19601f820116905080830192505050505050509192919290803590602001909291908035906020019092919050505061069f565b005b34801561021557600080fd5b506102566004803603606081101561022c57600080fd5b81019080803590602001909291908035906020019092919080359060200190929190505050610730565b6040518080602001828103825283818151815260200191508051906020019080838360005b8381101561029657808201518184015260208101905061027b565b50505050905090810190601f1680156102c35780820380516001836020036101000a031916815260200191505b509250505060405180910390f35b3480156102dd57600080fd5b506103b5600480360360808110156102f457600080fd5b8101908080359060200190929190803590602001909291908035906020019064010000000081111561032557600080fd5b82018360208201111561033757600080fd5b8035906020019184600183028401116401000000008311171561035957600080fd5b91908080601f016020809104026020016040519081016040528093929190818152602001838380828437600081840152601f19601f82011690508083019250505050505050919291929080359060200190929190505050610811565b005b3480156103c357600080fd5b506103f0600480360360208110156103da57600080fd5b810190808035906020019092919050505061088d565b6040518080602001838152602001828103825284818151815260200191508051906020019080838360005b8381101561043657808201518184015260208101905061041b565b50505050905090810190601f1680156104635780820380516001836020036101000a031916815260200191505b50935050505060405180910390f35b34801561047e57600080fd5b506104ab6004803603602081101561049557600080fd5b810190808035906020019092919050505061097d565b6040518082815260200191505060405180910390f35b3480156104cd57600080fd5b50610504600480360360408110156104e457600080fd5b810190808035906020019092919080359060200190929190505050610987565b6040518080602001838152602001828103825284818151815260200191508051906020019080838360005b8381101561054a57808201518184015260208101905061052f565b50505050905090810190601f1680156105775780820380516001836020036101000a031916815260200191505b50935050505060405180910390f35b34801561059257600080fd5b50610660600480360360608110156105a957600080fd5b8101908080359060200190929190803590602001906401000000008111156105d057600080fd5b8201836020820111156105e257600080fd5b8035906020019184600183028401116401000000008311171561060457600080fd5b91908080601f016020809104026020016040519081016040528093929190818152602001838380828437600081840152601f19601f82011690508083019250505050505050919291929080359060200190929190505050610aa1565b005b60606040805190810160405280600b81526020017f4869204861727368697461000000000000000000000000000000000000000000815250905090565b60606040519081016040528085815260200184815260200160008152506000808381526020019081526020016000206003016000848152602001908152602001600020600301600086815260200190815260200160002060008201518160000155602082015181600101908051906020019061071c929190610b1c565b506040820151816002015590505050505050565b6060600080838152602001908152602001600020600301600084815260200190815260200160002060030160008581526020019081526020016000206001018054600181600116156101000203166002900480601f0160208091040260200160405190810160405280929190818152602001828054600181600116156101000203166002900480156108035780601f106107d857610100808354040283529160200191610803565b820191906000526020600020905b8154815290600101906020018083116107e657829003601f168201915b505050505090509392505050565b606060405190810160405280848152602001838152602001828152506000808681526020019081526020016000206003016000858152602001908152602001600020600082015181600001556020820151816001019080519060200190610879929190610b1c565b506040820151816002015590505050505050565b6060600080831180156108a257506001548311155b15156108ad57600080fd5b60008084815260200190815260200160002060010160008085815260200190815260200160002060020154818054600181600116156101000203166002900480601f01602080910402602001604051908101604052809291908181526020018280546001816001161561010002031660029004801561096d5780601f106109425761010080835404028352916020019161096d565b820191906000526020600020905b81548152906001019060200180831161095057829003601f168201915b5050505050915091509150915091565b6000819050919050565b60606000808311801561099c57506001548311155b15156109a757600080fd5b6000808481526020019081526020016000206003016000858152602001908152602001600020600101600080858152602001908152602001600020600301600086815260200190815260200160002060020154818054600181600116156101000203166002900480601f016020809104026020016040519081016040528092919081815260200182805460018160011615610100020316600290048015610a8f5780601f10610a6457610100808354040283529160200191610a8f565b820191906000526020600020905b815481529060010190602001808311610a7257829003601f168201915b50505050509150915091509250929050565b600160008154809291906001019190505550606060405190810160405280848152602001838152602001828152506000806001548152602001908152602001600020600082015181600001556020820151816001019080519060200190610b09929190610b1c565b5060408201518160020155905050505050565b828054600181600116156101000203166002900490600052602060002090601f016020900481019282601f10610b5d57805160ff1916838001178555610b8b565b82800160010185558215610b8b579182015b82811115610b8a578251825591602001919060010190610b6f565b5b509050610b989190610b9c565b5090565b610bbe91905b80821115610bba576000816000905550600101610ba2565b5090565b9056fea165627a7a72305820a9fd79ffaabc5901df2bf4cf5996b1ecf52b971dced246d5ff55e937779dbc990029",
  "source": "pragma solidity ^0.5.0;\n\n\ncontract Survey {\n  struct option{\n    uint id;\n    string value;\n    uint vote;\n  }\n  struct question{\n    uint id;\n    string value;\n    uint numberOfOption;\n    mapping(uint => option) options;\n  }\n  struct survey{\n    uint id;\n    string name;\n    uint numberOfQuestion ;\n    mapping(uint => question) questions;\n  }\n  mapping(uint => survey) surveys;   \n    \n  uint numberOfSurvey ;\n  constructor() public {\n  }\n\n  function createOption(uint _optionId, string memory _optionValue, uint _questionId, uint _surveyId) public{\n    surveys[_surveyId].questions[_questionId].options[_optionId] = option(_optionId, _optionValue, 0); \n  }\n\n  function createQuestion(uint _surveyId, uint _questionId, string memory _questionValue, uint _numberOfOption) \n  public{\n    surveys[_surveyId].questions[_questionId] = question(_questionId, _questionValue, _numberOfOption);\n  }\n\n  function createSurvey(uint _surveyId, string memory _surveyName, uint _numberOfQuestion) public {\n\n    numberOfSurvey ++ ;\n    surveys[numberOfSurvey] = survey(_surveyId, _surveyName, _numberOfQuestion);\n  }\n  \n\n  function getSurvey(uint _surveyId) public view returns(string memory, uint)\n  {\n    require(_surveyId > 0 && _surveyId <= numberOfSurvey);\n    return(surveys[_surveyId].name, surveys[_surveyId].numberOfQuestion);\n  }\n\n  function getQuestion(uint _questionId, uint _surveyId) public view returns(string memory, uint)\n  {\n    require(_surveyId > 0 && _surveyId <= numberOfSurvey);\n    return (surveys[_surveyId].questions[_questionId].value, \n            surveys[_surveyId].questions[_questionId].numberOfOption) ;\n  }\n\n   function getOption(uint _optionId, uint _questionId, uint _surveyId) public view returns(string memory)\n  {\n    return surveys[_surveyId].questions[_questionId].options[_optionId].value;\n  }\n  //delete below code later\n  function harshu() public pure returns (string memory){\n    return \"Hi Harshita\";\n  }\n  function good(uint id) public pure returns (uint){\n    return (id);\n  \n  }\n\n}\n",
  "sourcePath": "C:/Users/ANAND/Desktop/survey/contracts/Survey.sol",
  "compiler": {
    "name": "solc",
    "version": "0.5.0+commit.1d4f565a.Emscripten.clang"
  },
  "schemaVersion": "3.0.0",
  "updatedAt": "2018-12-21T10:31:41.457Z",
  "devdoc": {
    "methods": {}
  },
  "userdoc": {
    "methods": {}
  }
}