{
  "contractName": "Survey",
  "abi": [
    {
      "constant": true,
      "inputs": [
        {
          "name": "",
          "type": "uint256"
        }
      ],
      "name": "questions",
      "outputs": [
        {
          "name": "quesId",
          "type": "uint256"
        },
        {
          "name": "quesvalue",
          "type": "string"
        }
      ],
      "payable": false,
      "stateMutability": "view",
      "type": "function"
    },
    {
      "constant": true,
      "inputs": [
        {
          "name": "",
          "type": "address"
        }
      ],
      "name": "clients",
      "outputs": [
        {
          "name": "candId",
          "type": "uint256"
        },
        {
          "name": "canName",
          "type": "string"
        }
      ],
      "payable": false,
      "stateMutability": "view",
      "type": "function"
    },
    {
      "constant": true,
      "inputs": [],
      "name": "quesCount",
      "outputs": [
        {
          "name": "",
          "type": "uint256"
        }
      ],
      "payable": false,
      "stateMutability": "view",
      "type": "function"
    },
    {
      "constant": true,
      "inputs": [],
      "name": "optCount",
      "outputs": [
        {
          "name": "",
          "type": "uint256"
        }
      ],
      "payable": false,
      "stateMutability": "view",
      "type": "function"
    },
    {
      "constant": false,
      "inputs": [
        {
          "name": "qValue",
          "type": "string"
        }
      ],
      "name": "addQuestion",
      "outputs": [],
      "payable": false,
      "stateMutability": "nonpayable",
      "type": "function"
    },
    {
      "constant": false,
      "inputs": [
        {
          "name": "optionValue",
          "type": "string"
        }
      ],
      "name": "addOption",
      "outputs": [],
      "payable": false,
      "stateMutability": "nonpayable",
      "type": "function"
    },
    {
      "constant": false,
      "inputs": [
        {
          "name": "qId",
          "type": "uint256"
        },
        {
          "name": "oId",
          "type": "uint256"
        }
      ],
      "name": "getOption",
      "outputs": [
        {
          "name": "optArray",
          "type": "string[]"
        }
      ],
      "payable": false,
      "stateMutability": "nonpayable",
      "type": "function"
    }
  ],
  "bytecode": "0x60806040526000600255600060035534801561001a57600080fd5b506109bd8061002a6000396000f300608060405260043610610083576000357c0100000000000000000000000000000000000000000000000000000000900463ffffffff1680631ce309271461008857806331b1b978146100c557806361eed2a914610103578063630c403714610141578063a136971c1461016c578063edc550dc14610197578063f129dbd9146101c0575b600080fd5b34801561009457600080fd5b506100af60048036036100aa9190810190610717565b6101e9565b6040516100bc9190610806565b60405180910390f35b3480156100d157600080fd5b506100ec60048036036100e791908101906106ee565b6102f1565b6040516100fa929190610843565b60405180910390f35b34801561010f57600080fd5b5061012a60048036036101259190810190610684565b6103ad565b604051610138929190610843565b60405180910390f35b34801561014d57600080fd5b50610156610469565b6040516101639190610828565b60405180910390f35b34801561017857600080fd5b5061018161046f565b60405161018e9190610828565b60405180910390f35b3480156101a357600080fd5b506101be60048036036101b991908101906106ad565b610475565b005b3480156101cc57600080fd5b506101e760048036036101e291908101906106ad565b6104fa565b005b60606000600190505b600354811115156102e75760008085815260200190815260200160002060020160008481526020019081526020016000206001018054600181600116156101000203166002900480601f0160208091040260200160405190810160405280929190818152602001828054600181600116156101000203166002900480156102ba5780601f1061028f576101008083540402835291602001916102ba565b820191906000526020600020905b81548152906001019060200180831161029d57829003601f168201915b505050505082828151811015156102cd57fe5b9060200190602002018190525080806001019150506101f2565b8191505092915050565b6000602052806000526040600020600091509050806000015490806001018054600181600116156101000203166002900480601f0160208091040260200160405190810160405280929190818152602001828054600181600116156101000203166002900480156103a35780601f10610378576101008083540402835291602001916103a3565b820191906000526020600020905b81548152906001019060200180831161038657829003601f168201915b5050505050905082565b6001602052806000526040600020600091509050806000015490806001018054600181600116156101000203166002900480601f01602080910402602001604051908101604052809291908181526020018280546001816001161561010002031660029004801561045f5780601f106104345761010080835404028352916020019161045f565b820191906000526020600020905b81548152906001019060200180831161044257829003601f168201915b5050505050905082565b60025481565b60035481565b6001600354016003819055508060008060025481526020019081526020016000206002016000600354815260200190815260200160002060010190805190602001906104c2929190610561565b506003546000806002548152602001908152602001600020600201600060035481526020019081526020016000206000018190555050565b6000600381905550600260008154809291906001019190505550806000806002548152602001908152602001600020600101908051906020019061053f929190610561565b5060025460008060025481526020019081526020016000206000018190555050565b828054600181600116156101000203166002900490600052602060002090601f016020900481019282601f106105a257805160ff19168380011785556105d0565b828001600101855582156105d0579182015b828111156105cf5782518255916020019190600101906105b4565b5b5090506105dd91906105e1565b5090565b61060391905b808211156105ff5760008160009055506001016105e7565b5090565b90565b60006106128235610906565b905092915050565b600082601f830112151561062d57600080fd5b813561064061063b826108a0565b610873565b9150808252602083016020830185838301111561065c57600080fd5b610667838284610930565b50505092915050565b600061067c8235610926565b905092915050565b60006020828403121561069657600080fd5b60006106a484828501610606565b91505092915050565b6000602082840312156106bf57600080fd5b600082013567ffffffffffffffff8111156106d957600080fd5b6106e58482850161061a565b91505092915050565b60006020828403121561070057600080fd5b600061070e84828501610670565b91505092915050565b6000806040838503121561072a57600080fd5b600061073885828601610670565b925050602061074985828601610670565b9150509250929050565b600061075e826108d9565b80845260208401935083602082028501610777856108cc565b60005b848110156107b05783830388526107928383516107c1565b925061079d826108ef565b915060208801975060018101905061077a565b508196508694505050505092915050565b60006107cc826108e4565b8084526107e081602086016020860161093f565b6107e981610972565b602085010191505092915050565b610800816108fc565b82525050565b600060208201905081810360008301526108208184610753565b905092915050565b600060208201905061083d60008301846107f7565b92915050565b600060408201905061085860008301856107f7565b818103602083015261086a81846107c1565b90509392505050565b6000604051905081810181811067ffffffffffffffff8211171561089657600080fd5b8060405250919050565b600067ffffffffffffffff8211156108b757600080fd5b601f19601f8301169050602081019050919050565b6000602082019050919050565b600081519050919050565b600081519050919050565b6000602082019050919050565b6000819050919050565b600073ffffffffffffffffffffffffffffffffffffffff82169050919050565b6000819050919050565b82818337600083830152505050565b60005b8381101561095d578082015181840152602081019050610942565b8381111561096c576000848401525b50505050565b6000601f19601f83011690509190505600a265627a7a7230582093fcf405d3f7aad632ccfe80cc2162bab44b3b2426176949133ac12ce14feefa6c6578706572696d656e74616cf50037",
  "source": "pragma solidity ^0.4.2;\r\npragma experimental ABIEncoderV2;\r\n\r\ncontract Survey{\r\n    struct question {\r\n        uint quesId;\r\n        string quesvalue;\r\n        mapping(uint => option)  options;\r\n    }\r\n    struct option{\r\n        uint optId;\r\n        string optvalue;\r\n    }\r\n\r\n    struct client{\r\n        uint candId;\r\n        string canName;\r\n    }\r\n\r\n    mapping(uint => question) public questions;\r\n    mapping(address => client) public clients;\r\n\r\n    uint public quesCount=0;\r\n    uint public optCount=0;\r\n    //string[] public optArray;\r\n\r\n    //mapping(uint=>string) public optArray;\r\n\r\n    function addQuestion(string memory qValue) public{\r\n        optCount = 0;\r\n        quesCount++;\r\n        questions[quesCount].quesvalue = qValue;\r\n        questions[quesCount].quesId = quesCount;\r\n    }\r\n\r\n    function addOption(string memory optionValue) public{\r\n        optCount = optCount+1;\r\n        questions[quesCount].options[optCount].optvalue = optionValue;\r\n        questions[quesCount].options[optCount].optId = optCount;\r\n    }\r\n\r\n    function getOption(uint qId,uint oId) public returns(string[] memory optArray){\r\n        //for(uint i = 1;i <= quesCount;i++){\r\n        for(uint j = 1;j <= optCount;j++){\r\n            optArray[j] = questions[qId].options[oId].optvalue;\r\n        }\r\n        return(optArray);    \r\n        //}\r\n        //return \r\n    }\r\n\r\n}",
  "sourcePath": "F:\\Projects\\blockcahin\\practice\\questionsAnswers\\contracts\\Survey.sol",
  "compiler": {
    "name": "solc",
    "version": "0.4.24+commit.e67f0147.Emscripten.clang"
  },
  "schemaVersion": "2.0.1",
  "updatedAt": "2019-02-07T11:57:45.249Z"
}